:020000040008F2
:040000000048180E8E
:20000400761BFFF0E20000BDE63006002942561676256F00761BFFF0E20000BDE630060085
:200014002942561676256F00761BFFF0E20000BDE63006002942561676256F00761BFFF04F
:20002400E20000BDE63006002942561676256F00761BFFF0E20000BDE6300600294256160E
:2000340076256F00761BFFF0E20000BDE63006002942561676256F00761BFFF0E20000BD67
:20004400E63006002942561676256F00761BFFF0E20000BDE63006002942561676256F0083
:20005400761BFFF0E20000BDE63006002942561676256F00761BFFF0E20000BDE630060035
:200064002942561676256F00761BFFF0E20000BDE63006002942561676256F00761BFFF0FF
:20007400E20000BDE63006002942561676256F00761BFFF0E20000BDE630060029425616BE
:2000840076256F00761BFFF0E20000BDE63006002942561676256F00761BFFF0E20000BD17
:20009400E63006002942561676256F00761BFFF0E20000BDE63006002942561676256F0033
:2000A400761BFFF0E20000BDE63006002942561676256F00761BFFF0E20000BDE6300600E5
:2000B4002942561676256F00761BFFF0E20000BDE63006002942561676256F00761BFFF0AF
:2000C400E20000BDE63006002942561676256F00761BFFF0E20000BDE6300600294256166E
:2000D40076256F00761BFFF0E20000BDE63006002942561676256F00761BFFF0E20000BDC7
:2000E400E63006002942561676256F00761BFFF0E20000BDE63006002942561676256F00E3
:2000F400761BFFF0E20000BDE63006002942561676256F00761BFFF0E20000BDE630060095
:200104002942561676256F00761BFFF0E20000BDE63006002942561676256F00761BFFF05E
:20011400E20000BDE63006002942561676256F00761BFFF0E20000BDE6300600294256161D
:2001240076256F00761BFFF0E20000BDE63006002942561676256F00761BFFF0E20000BD76
:20013400E63006002942561676256F00761BFFF0E20000BDE63006002942561676256F0092
:20014400761BFFF0E20000BDE63006002942561676256F00761BFFF0E20000BDE630060044
:200154002942561676256F00761BFFF0E20000BDE63006002942561676256F00761BFFF00E
:20016400E20000BDE63006002942561676256F00761BFFF0E20000BDE630060029425616CD
:2001740076256F00761BFFF0E20000BDE63006002942561676256F00761BFFF0E20000BD26
:20018400E63006002942561676256F00761BFFF0E20000BDE63006002942561676256F0042
:20019400761BFFF0E20000BDE63006002942561676256F00761BFFF0E20000BDE6300600F4
:2001A4002942561676256F00761BFFF0E20000BDE63006002942561676256F00761BFFF0BE
:2001B400E20000BDE63006002942561676256F00761BFFF0E20000BDE6300600294256167D
:2001C40076256F00761BFFF0E20000BDE63006002942561676256F00761BFFF0E20000BDD6
:2001D400E63006002942561676256F00761BFFF0E20000BDE63006002942561676256F00F2
:2001E400761BFFF0E20000BDE63006002942561676256F00761BFFF0E20000BDE6300600A4
:2001F4002942561676256F00761BFFF0E20000BDE63006002942561676256F00761BFFF06E
:20020400E20000BDE63006002942561676256F00761BFFF0E20000BDE6300600294256162C
:2002140076256F00761BFFF0E20000BDE63006002942561676256F00761BFFF0E20000BD85
:20022400E63006002942561676256F00761BFFF0E20000BDE63006002942561676256F00A1
:20023400761BFFF0E20000BDE63006002942561676256F00761BFFF0E20000BDE630060053
:200244002942561676256F00761BFFF0E20000BDE63006002942561676256F00761BFFF01D
:20025400E20000BDE63006002942561676256F00761BFFF0E20000BDE630060029425616DC
:2002640076256F00761BFFF0E20000BDE63006002942561676256F00761BFFF0E20000BD35
:20027400E63006002942561676256F00761BFFF0E20000BDE63006002942561676256F0051
:20028400761BFFF0E20000BDE63006002942561676256F00761BFFF0E20000BDE630060003
:200294002942561676256F00761BFFF0E20000BDE63006002942561676256F00761BFFF0CD
:2002A400E20000BDE63006002942561676256F00761BFFF0E20000BDE6300600294256168C
:2002B40076256F00761BFFF0E20000BDE63006002942561676256F00761BFFF0E20000BDE5
:2002C400E63006002942561676256F00761BFFF0E20000BDE63006002942561676256F0001
:2002D400761BFFF0E20000BDE63006002942561676256F00761BFFF0E20000BDE6300600B3
:2002E4002942561676256F00761BFFF0E20000BDE63006002942561676256F00761BFFF07D
:2002F400E20000BDE63006002942561676256F00761BFFF0E20000BDE6300600294256163C
:2003040076256F00761BFFF0E20000BDE63006002942561676256F00761BFFF0E20000BD94
:20031400E63006002942561676256F00761BFFF0E20000BDE63006002942561676256F00B0
:20032400761BFFF0E20000BDE63006002942561676256F00761BFFF0E20000BDE630060062
:200334002942561676256F00761BFFF0E20000BDE63006002942561676256F00761BFFF02C
:20034400E20000BDE63006002942561676256F00761BFFF0E20000BDE630060029425616EB
:2003540076256F00761BFFF0E20000BDE63006002942561676256F00761BFFF0E20000BD44
:20036400E63006002942561676256F00761BFFF0E20000BDE63006002942561676256F0060
:20037400761BFFF0E20000BDE63006002942561676256F00761BFFF0E20000BDE630060012
:200384002942561676256F00761BFFF0E20000BDE63006002942561676256F00761BFFF0DC
:20039400E20000BDE63006002942561676256F00761BFFF0E20000BDE6300600294256169B
:2003A40076256F00761BFFF0E20000BDE63006002942561676256F00761BFFF0E20000BDF4
:2003B400E63006002942561676256F00761BFFF0E20000BDE63006002942561676256F0010
:2003C400761BFFF0E20000BDE63006002942561676256F00761BFFF0E20000BDE6300600C2
:2003D4002942561676256F00761BFFF0E20000BDE63006002942561676256F00761BFFF08C
:2003E400E20000BDE63006002942561676256F00761BFFF0E20000BDE6300600294256164B
:2003F40076256F00761BFFF0E20000BDE63006002942561676256F00761BFFF0E20000BDA4
:20040400E63006002942561676256F00761BFFF0E20000BDE63006002942561676256F00BF
:20041400761BFFF0E20000BDE63006002942561676256F00761BFFF0E20000BDE630060071
:200424002942561676256F00761BFFF0E20000BDE63006002942561676256F00761BFFF03B
:20043400E20000BDE63006002942561676256F00761BFFF0E20000BDE630060029425616FA
:2004440076256F00761BFFF0E20000BDE63006002942561676256F00761BFFF0E20000BD53
:20045400E63006002942561676256F00761BFFF0E20000BDE63006002942561676256F006F
:20046400761BFFF0E20000BDE63006002942561676256F00761BFFF0E20000BDE630060021
:200474002942561676256F00761BFFF0E20000BDE63006002942561676256F00761BFFF0EB
:20048400E20000BDE63006002942561676256F00761BFFF0E20000BDE630060029425616AA
:2004940076256F00761BFFF0E20000BDE63006002942561676256F00761BFFF0E20000BD03
:2004A400E63006002942561676256F00761BFFF0E20000BDE63006002942561676256F001F
:2004B400761BFFF0E20000BDE63006002942561676256F00761BFFF0E20000BDE6300600D1
:2004C4002942561676256F00761BFFF0E20000BDE63006002942561676256F00761BFFF09B
:2004D400E20000BDE63006002942561676256F00761BFFF0E20000BDE6300600294256165A
:2004E40076256F00761BFFF0E20000BDE63006002942561676256F00761BFFF0E20000BDB3
:2004F400E63006002942561676256F00761BFFF0E20000BDE63006002942561676256F00CF
:20050400761BFFF0E20000BDE63006002942561676256F00761BFFF0E20000BDE630060080
:200514002942561676256F00761BFFF0E20000BDE63006002942561676256F00761BFFF04A
:20052400E20000BDE63006002942561676256F00761BFFF0E20000BDE63006002942561609
:2005340076256F00761BFFF0E20000BDE63006002942561676256F00761BFFF0E20000BD62
:20054400E63006002942561676256F00761BFFF0E20000BDE63006002942561676256F007E
:20055400761BFFF0E20000BDE63006002942561676256F00761BFFF0E20000BDE630060030
:200564002942561676256F00761BFFF0E20000BDE63006002942561676256F00761BFFF0FA
:20057400E20000BDE630060029425616E28000BEFFF176177602761BFFF0E20000BDE6308B
:2005840006002942561676256F00FE067D451E44A842761F1400CE08CF09FF58610456BF36
:2005940001466F0C924552016004061696C46F055202600306161EC42B469246FE86000685
:2005A400FE047C431E42761F1400064ACA42CB41CE08CF09FF58610456BF01446F169243E7
:2005B4005201600402071E106F055202600302081E1006481E125CAD0642DC8ACA04CAC445
:2005C400CB05CBCC1E042B449244FE840006FE047C431E42761F1400064CCA42CB41CE08B7
:2005D400CF09FF58610456BF01446F1D92435201600902011E1006481E12064A91001E143A
:2005E4006F095202600702021E1006481E12064A1E145CAD0642CA04DC8CCB05CAC4CBCC16
:2005F4001E042B449244FE840006FE047C431E42761F1400064CCA42CB41CE08CF09FF58BF
:20060400610456BF01446F1D92435201600902091E1006481E12064A91001E146F09520264
:200614006007020A1E1006481E12064A1E145CAD0642CA04DC8CCB05CAC4CBCC1E042B4418
:200624009244FE840006FE047C431E42761F1400064CCA42CB41CE08CF09FF58610456BFA5
:2006340001446F1D92435201600902031E1006481E12064A91001E146F0952026007020447
:200644001E1006481E12064A1E145CAD0642CA04DC8CCB05CAC4CBCC1E042B449244FE8403
:200654000006FE047C431E42761F1400064CCA42CB41CE08CF09FF58610456BF01446F1DFC
:20066400924352016009020B1E1006481E12064A91001E146F0952026007020C1E1006485C
:200674001E12064A1E145CAD0642CA04DC8CCB05CAC4CBCC1E042B449244FE840006FE0447
:200684007C431E42761F1400064CCA42CB41CE08CF09FF58610456BF01446F1892435201B1
:20069400600402051E106F055202600302061E1006481E12064A1E145CAD0642DC8CCA04C5
:2006A400CAC4CB05CBCC1E042B449244FE840006FE047C431E42761F1400064CCA42CB411E
:2006B400CE08CF09FF58610456BF01446F18924352016004020D1E106F0552026003020ED7
:2006C4001E1006481E12064A1E145CAD0642DC8CCA04CAC4CB05CBCC1E042B449244FE8483
:2006D4000006FE041E42761F1400064CCA42CB41CE08CF09FF58610456BF01436F10021235
:2006E4001E1006481E12064A1E145CAD0642DC8CCA04CAC4CB05CBCC1E042B439243FE8465
:2006F4000006FE0C7C4B1E488F05F444A84A924B600D064A1E42D40206501E4406521E46A7
:200704000648764805F9964C6F0E5201600C064A1E42D40206501E4406521E4606487648A7
:200714000655964C924CFE8C0006FE061E420642761F1400CE02CF03FF5861FA02070F1841
:20072400600D061A1E468A460EC41E1E064ACA00CA42CB01CB411E006F1302080F18600DAA
:20073400061A1E448A4406C41E1E064ACA00CA42CB01CB411E006F04064298009901FE86C2
:200744000006FE061E420642761F1400CE02CF03FF5861FA02010F186010061A1E448A44FC
:20075400061C98C48A440EC41E1E064ACA00CA42CB01CB411E006F1702020F186011061ACD
:200764001E468A46061C98C499CC8A4606C41E1E064ACA00CA42CB01CB411E006F040642B1
:2007740098009901FE860006FE061E420642761F1400CE02CF03FF5861FA762202090F1836
:200784006010061A1E448A44061C98C48A440EC41E1E064ACA00CA42CB01CB411E006F1799
:20079400020A0F186011061A1E468A46061C98C499CC8A4606C41E1E064ACA00CA42CB01A2
:2007A400CB411E006F04064298009901761AFE86FF690006FE061E420642761F1400CE0277
:2007B400CF03FF5861FA02030F186011061A1E448A44061CFF5EC0C48A440EC41E1E064A85
:2007C400CA00CA42CB01CB411E006F1802040F186012061A1E468A46061CFF55C0C4C1CC48
:2007D4008A4606C41E1E064ACA00CA42CB01CB411E006F04064298009901FE860006FE0698
:2007E4001E420642761F1400CE02CF03FF5861FA7622020B0F186011061A1E448A44061CA1
:2007F400FF5EC0C48A440EC41E1E064ACA00CA42CB01CB411E006F18020C0F186012061ABE
:200804001E468A46061CFF55C0C4C1CC8A4606C41E1E064ACA00CA42CB01CB411E006F04B4
:20081400064298009901761AFE86FF690006FE061E420642761F1400CE02CF03FF5861FA1F
:2008240002050F186010061A1E468A46061C96C48A460EC41E1E064ACA00CA42CB01CB416A
:200834001E006F1602060F186010061A1E448A44061C1EC48A4406C41E1E064ACA00CA4214
:20084400CB01CB411E006F04064298009901FE860006FE061E420642761F1400CE02CF0330
:20085400FF5861FA7622020D0F186010061A1E468A46061C96C48A460EC41E1E064ACA00CC
:20086400CA42CB01CB411E006F16020E0F186010061A1E448A44061C1EC48A4406C41E1E1E
:20087400064ACA00CA42CB01CB411E006F04064298009901761AFE86FF690006FE041E4277
:200884000642761F1400CE02CF03FF5861FA02120F186010061A1E44C544061C3E67761F7D
:2008940014001E1E0648CA00CA42CB01CB411E006F04064298009901FE8400067700770077
:2008A400770077007700FF6900067648099D7622FF6976480FB5761F174C1A3C00011A3CD6
:2008B40000021A3C00041A3C00088F05D1B692C460098F007BDD761F1746A836A838A83A17
:2008C400A83C761F174C183CFFFE183CFFFD183CFFFB183CFFF7761A9A01D400D5019B147B
:2008D400FF69764809AB764808DA00067622761F174C1A2200011A2200041A2200081A22F7
:2008E40000101A2200201A2300011A2300041A2400011A2400021A2600011A2600021A26C7
:2008F40000041A2600081A2600101A2600201A2600401A2600801A2601001A2602001A26E5
:2009040004001A2608001A2800011A2800021A2800041A2800081A2800101A2800201A2A78
:2009140000011A2A00021A2A00041A2E00011A2E00021A3000011A3000021A3000041A3072
:2009240000081A3200011A3200021A3200041A3400011A3400021A3600011A3600021A382C
:2009340000011A3800021A3900011A3A00011A3C00011A3C00021A3C00041A3C00081A3EE6
:2009440000011A3E00021A3E00041A3E00081A3E00101A3E00201A3E00401A3E0080761F97
:20095400174D1A0300011A0300021A030004761AFF69000676220200761F174C1E221E24AF
:200964001E261E281E2A1E2E1E301E321E341E361E381E3A1E3C1E3E761F174D1E02761A04
:20097400FF69000676226F059A0228A85A5A1E24761F140092249003520260F7761AFF69F2
:20098400000676229A0028A85A5A761F14001E24761AFF6900067622761F01C0CC25FF00D0
:2009940050559625CC25FF0050AA9625761AFF690006FE027622761F01C092299007964129
:2009A400924150689629761AFF69FE820006FE067D447C4397429641761F174888419208E0
:2009B40090030EA90FA6601488429214907F0EA90FA6600E8843CC140300FFC70EA90FA677
:2009C400600788449222903F0EA90FA661628841920890030EA90FA661116F0A76480AE237
:2009D4006F0D76480AEC6F0A76480AF66F07924161F9520161FA520261F27622761F174818
:2009E40088429214907F0EA90FA660088843CC140300FFC70EA90FA66122180EFFFD1822E1
:2009F400FFC006141E4618A9FC8091001EA756030843CA4288A906A7AFA61E141A0E0001D5
:200A040092169001520160FD9242CD14FF80907FCAA8961492169001520160FD9244523F3A
:200A140061089C01CD22FFC0903FCAA896226F06CD22FFC0903FCAA896221A0E0002F66475
:200A240077009244CD22FFC0903FCAA89622761AFE86FF690006FE087D447C439742964106
:200A3400761F17488841920A90030EA90FA6601E8842921E907F0EA90FA660188843CC1EAA
:200A44000300FFC70EA90FA660118844922490030EA90FA661706F0A76480B026F0D76481C
:200A54000B0C6F0A76480B186F07924161F6520161F7520461F80E42761F17481EA6921E5F
:200A6400907F80A906A60FA7600A0E431EA6CC1E0300FFC780A906A60FA7612476221A24C0
:200A74000003061E1E4818A9FC8091001EA756030843CA4288A906A7AFA61E1E1A180001F0
:200A8400761A92209001520160FD76229242CD1EFF80907FCAA8961E761A9220900152019E
:200A940060FD56BF03456F1976229245CD24FFFC9CFF9003CAA89624761A0B450E441EA655
:200AA4009224900380A906A60FA761078F000256FF69A8A9764080370E44761F17481EA6DF
:200AB4009224900380A906A60FA760DF76221A180002761AFE88FF69000676220200761F90
:200AC40017C019011E10020019011E12020019011E14020019011E160200761F17C1190180
:200AD4001E10020019011E12020019011E14020019011E16761A9A00FF6900067622761F25
:200AE4001748CC08FFFC50029608761AFF6900067622761F17481808FFF71808FFFC761A89
:200AF400FF6900067622761F17481808FFEFCC08FFFC50019608761AFF6900067622761FF1
:200B040017481808FFF7180AFFFC761AFF6900067622761F17481808FFEFCC0AFFFC500185
:200B1400960A761AFF6900067622761F1748CC0AFFFC5002960A761AFF6900067622761FA9
:200B2400174D1836FFFC761A7621FF6900067622761F174DCC36FFFC50019636761A76219D
:200B3400FF6900067622761F174DCC36FFFC50029636761A761F174492259003520160FB0F
:200B44007622761F1748180EFFFD180EFFFE761A7621FF6900067622761F174D1A36000347
:200B5400761A761F174492259003600592249001520161F8FF697648095E7622761F174846
:200B6400180EFFFD180EFFFE761A7621FF690006FE06761F03819A009331BE0053006102A8
:200B74009A0152006002BE017E31761F01400604761F03811E12761F01400624761F038162
:200B84001E140F12670406121E466F021E468F05B8D8A8A90F46671728A91A3028A8011EF0
:200B94000F4666055633A9241E266F0D761F0380870456470046761F0381A9A956050046D9
:200BA400A9241E26FE8600060006E20304BDE20305BDFE12761F01FCCC010200FFC80EA954
:200BB400BDA90F127700770077007700E68B0000761F0381E2030016761F01FCCC010400D6
:200BC400FFC90EA9BDA90F127700770077007700E68B0000761F0381E2030018761F01FC16
:200BD400CC010800FFCA0EA9BDA90F127700770077007700E68B0000761F0381E203001AC0
:200BE400BE00E2AF0016E5A0AD146102BE01E2AF00189A00E5A0AD1461029A01E2AF001AF2
:200BF4009B0070A6E5A0AD1461029B0170A8E2AF00289B00E5A0AD1461029B0170A8E2AF91
:200C0400002A9B00E5A0AD1461029B0170A8E2AF002C9B00E5A0AD1461029B0170A896491A
:200C1400613A920A52016137761F0380E2AF0034761F0381E2AF0116761F0380E2AF02361F
:200C2400761F0381E2AF0318761F0380E3004438761F0381E7000099E2AF051AE740812A59
:200C34007700E71000807700E203001C761F0380E2AF003AE2AF023C761F0381E2AF0118C5
:200C4400E300431AE70000997700E71000407700E203001E9249960A5CADE2AF001CDC9209
:200C540088A4764817BF5CAD88AD8F48256ADC92DE8E5CA488A67648138E5CADDC8E5CA442
:200C6400764817821E445CAD761F0381DC92E2AF001E88A4764817BF5CAD88AD8F48256A14
:200C7400DC92DE8E5CA488A67648138E5CADDC8E5CA4764817821E4606441E420646764817
:200C840025EC761F03811E0E28AC001C032E5610964A761F0380E801FC00E2AF0102764844
:200C94001306761F0380E2AF0112761F0381E2AF0220474AE70000526C052D4A1AACFF80A8
:200CA4006F04CC4A007F2DA9761F03813B01120885A9BDA90F167700770077007700E689DF
:200CB40000097700E84F2009761F0380E7000051E2AF051AE70000697700E7000040E2AFC1
:200CC400041CE7000020761F0381E2030010923070316108761F0380060A761F03811E228E
:200CD4006F0DE2AF0022761F0380E2AF0108E7100040761F0381E203002206161E28061848
:200CE4001E2A061A1E2C060E1E2E761F0380E2AF0020761F0381E2AF0122E6940001AD140C
:200CF4006506761F038006201E486F10761F0380E2AF0022E6940001AD14630406221E4856
:200D04006F05761F038106221E48761F0380E2AF0148E2AF0000E6940001AD146404060681
:200D14001E486F0C761F0381A3240626764817F4E84880007700E2030048761F0380E2AF0C
:200D24000016761F0381E2AF0120E3004548761F0380E321411476481306761F0381E20318
:200D3400002092319630FE92E2AF05BEE2AF04BE0006761F20958A2802001EC48F00E05218
:200D4400F60D2B848F00E060F6112B84761F03812B0B8F00E04EF6032B847622761F01F086
:200D54001809FFF3180BFDFF761A76221809FFCF180BFBFF761A76221809FF3F180BF7FF79
:200D6400761A761F038156BF010A761F0380C42A0628761F03811E24C226761F0381920480
:200D7400761F03819631761F0380063E761F03811E28761F03810600761F03811E2A761FAF
:200D840003810602761F03811E2C761F0380062E761F03811E2E761F03800618761F038160
:200D94001E20761F0380061E761F03811E22761F03819206761F03819630761F038006308E
:200DA400761F03811E1C761F03800632761F03811E1E761F0380062C761F03811E0E761F13
:200DB4000380060C761F03811E10FF6900060006FE0476220200761F01F01E3C761F01F1CC
:200DC4001E3C761F01F21E3C761F01F31E3C761F01F41E3C761F01F51E3C8F007C00A84232
:200DD4002B43924352C0670F2901BE00901F520661065603014307428AA9C2C40A4392431D
:200DE40052C068F58F007F00A8422B4392435218670C2901BE005603014307428AA9C2C4E1
:200DF4000A439243521868F8761AFE84FF690006FE0E7C4B974A9649901F964C9249900FD5
:200E0400964D92499007964E29018F007C009249FFC4FF84560301A9560100A4A842924A7B
:200E140052036670924B520F69026F6C924CFFC3560301A9074209061E44924CFFC35603B9
:200E240001A9074209201E46924CFFC2560301A9074209281E487622FF6902038A44FF5A80
:200E34005603014D16A9563BFF55FF5A92ABC0C492AAC0CC0203FF5A8A465603014D16A9DD
:200E4400563BFF55FF5A92ABC0C492AAC0CC0203FF5A924BFFC188A98A46A9A989A6FF5AF1
:200E54005603014D16A9563BFF5A92AB98C492AA98CC0203894B8A44FF5A5603014D16A98F
:200E6400563BFF5A92AB98C492AA98CC0203FF5A8A485603024E16A9563BFF55FF5A92AB38
:200E7400C0C492AAC0CC0203894A8A48FF5A5603024E16A9563BFF5A92AB98C492AA98CC84
:200E8400761AFE8EFF690006FE187C5797569655901F0EA91E4E9255900F0EA91E502D4E0B
:200E94000201563B1E5229018F007C009255FFC4FF84560301A9560100A4A842020A07429B
:200EA4001E44020C07421E46021007421E48021207421E4A064EFF43FF30074209021E4C08
:200EB40076228A440652FF55C0C4C1CC92565201601F8A44065298C499CC42576C068A4A7B
:200EC400065298C499CC6F068A4A0652FF55C0C4C1CC9257900561078A460652FF55C0C409
:200ED400C1CC6F238A46065298C499CC6F1E8A440652FF55C0C4C1CC40576C078A460652AC
:200EE400FF55C0C4C1CC6F058A46065298C499CC41576C068A48065298C499CC6F068A48F0
:200EF4000652FF55C0C4C1CC92579030FFC30EA91E54FF6902038A4CFF5A5603015016A988
:200F0400563BFF55FF5A92ABC0C492AAC0CC0654610CA354560301508A4C16A9563BFF5A1F
:200F140092AB98C492AA98CC761AFE98FF690006FE0A974A9649901F0EA91E462D460201E8
:200F2400563B1E4829018F007C009249FFC4FF84560301A9560100A4A842023C07421E448F
:200F34007622924A61068A44064898C499CC6F068A440648FF55C0C4C1CC761AFE8AFF696F
:200F44000006FE0296417622761F01E49603761AFF69FE820006FE0296417622761F01E49E
:200F54009604761AFF69FE820006FE0296417622761F01E49605761AFF69FE820006FE0263
:200F640096417622761F01E4960C761AFF69FE820006FE0296417622761F01E4960D761A48
:200F7400FF69FE820006762228A9FFFF28A87FFF761F01F21E0C761F01F302081E0C761FB6
:200F840001F402201E0C3B01761F01F5FF29FFFF1E0C761AFF69000676228F3FFC1C761FE4
:200F940001F0A80C28A90E0028A8FC00761F01F11E0C28A943E728A81EF0761F01F21E0CB1
:200FA400761F01F302081E0C761F01F402001E0C3B01761F01F5FF29FFFF1E0C761AFF69AB
:200FB4000006FE02761F17400608290118A907009100FF4796415205600476480F906F06F0
:200FC4005206600476480F776F01FE820006FE049643FFC429018F007F00FF81560301A9BE
:200FD400560100A4A8429243901F2DA906C456221EA692A690019644FE840006FE069746AC
:200FE4009645FFC429018F007F00FF81560301A9560100A4A84202011EA69245901F2DA98C
:200FF40006A6563B1E449246600406441EE46F0306441ED4FE86000629102920FF6900068E
:201004003B10FF6900068F48236C8F0823A7A0A9564100A4A8A98F008000764817A176403C
:2010140080000006FE0802001E441E461E4876228F081193761F0038A80802151E46021C19
:201024000F46690E5C460201DC8C2DA4563B98489947020107461E46021C0F4666F4021A14
:201034001E460F46690E5C460201DC8C2DA4563B98489947020107461E46021A0F4666F4BE
:201044000648761F17D198049905761A8F03FFF4A84283428F081094A8C583428F00E07671
:20105400A8D583428F00E074A8E583428F0810E7A8F5020807428AA98F481150A0C4761F23
:2010640000331A2210007623000129102920BE028F0002BC6F04020107441E44761F1400F8
:2010740006209B00900F0FA66104A8A90F4466F4020B1E2202131E109A0128A880001E0447
:2010840002001E448F0001F4A8A90F446907020107441E44A8A90F4466FBFE88FF690006A7
:20109400FE021E4228AC0018BE03900018A8FF0056220FA66025184100FFCC4200FF29019F
:2010A40088A9064218A9FF009100FF475CA99B0392A676480DFCCC4200FF80A928AC001858
:2010B400064291FF0EA888A90642900018A8FF0056225CA993A692A776480E886F22CC42E4
:2010C40000FF88A92901064218A9FF009100FF475CA99B0292A676480DFCCC4200FF80A9FC
:2010D40028AC0018064291FF0EA888A90642900018A8FF0056225CA993A692A776480E8877
:2010E4000201FE820006FE041E42924290FF964376226F479243761F01E496006F599243F5
:2010F400761F01E496016F549243761F01E496026F4F9243761F01E496036F4A9243761F58
:2011040001E496046F459243761F01E496056F409243761F01E496066F3B9243761F01E41B
:2011140096076F369243761F01E496086F319243761F01E496096F2C9243761F01E4960A74
:201124006F279243761F01E4960B6F229243761F01E4960C6F1D9243761F01E4960D6F189E
:2011340006422901BE0D18A9FF009100FF471EA719010FA6660D06A776C8268C1901FF30DA
:20114400560100A724A9DF0124A81EA77620761A0201FE84FF690006FE0A1E4291FF974760
:201154002901064218A9FF009100FF479648924290FF96499248900F964A8F007A80560317
:2011640001499CFE560301A9560100A49248FFC3560301A907A41E4692499CFF8F007AA0BC
:20117400560301A907A41E4476222BAAFF699247900327A98A465603014A16A9563BFF5A1D
:2011840092AB98C492AA98CC8A4402012D48563B98C499CC761A0201FF69FE8A0006761B60
:20119400FFF00005ABBDA8BDA0BDC2BDC3BDE20000BDE20300BDE20301BDE20302BDE203B1
:2011A40003BDE6300600FE04FF6929425616761F140006181E446F7F9A0028A880001E42AD
:2011B400020176480745FFEF00889A0028A880001E420201764807456F7F9A0028A8800069
:2011C4001E420201764807AE6F779A0028A880001E420201764807AE6F6F9A0028A88000C7
:2011D4001E4202017648081B6F679A0028A880001E4202017648081B6F5F9A0028A88000FB
:2011E4001E420201764807786F579A0028A880001E420201764807786F4F9A0028A8800053
:2011F4001E420201764807E36F479A0028A880001E420201764807E36F3F9A0028A880008D
:201204001E4202017648084D6F379A0028A880001E4202017648084D6F2F9A0028A88000C6
:201214001E420201764807196F279A0028A880001E420201764807196F1F9A0028A8800040
:201224001E420201764808826F17761F038156BF01326F12BE111901C5440FA666F706A7E6
:2012340076C826681901FF30560100A724A9DF0124A81EA77620761F003356BF01218F0025
:20124400036E761F1400A8A90F1C60151A0000011A0180001A0600011A0780003B10761F27
:2012540000331822EFFFF6057700762FFFFE56BF01212910FE84E2AF03BEE2AF02BEE2AFE5
:2012640001BEE2AF00BEE28000BEC5BEC4BE83BE8ABE87BE00033B30FFF176177602764848
:20127400099D7622761F174C1A220004761A7622FF6976480FB5761F174C1A3C00011A3C2D
:2012840000021A3C00041A3C00088F05D1B692C460098F007BDD761F1746A836A838A83A3D
:20129400A83C761F174C183CFFFE183CFFFD183CFFFB183CFFF7761A9A01D400D5019B14A1
:2012A400FF69764809AB7622761F174C1A2200081A2200101A2200201A2300011A23000455
:2012B4001A240002020F761F17431E2C8F000FFFA816023F1E1802071E1A020F1E20020725
:2012C4001E2202031E268F070000A8321E241818FFFD1818FFFE761A7622761F1748182C16
:2012D400FFF8761A3B1076260000762F0000FF6976481710764817387648101676481411C6
:2012E400764815C2764815CC764815F77622761F01F002001E021E04761F01F11E021E04C1
:2012F400761F01F21E021E04761F01F31E021E04761F01F41E021E04761F01F51E02761A3E
:20130400FF6900063ABDB2BDAABDA2BDFE022901BFA90F12FF58615B5CA8917F08A8008025
:201314001E4293A4FFD65CA8BFA90F1661675DA8917F08A8008059A858A993A5FFD65DA89B
:2013240093A471A518A8010097A618A400FF18A500FFDC7F92A49EA596A7644D08A9FF0174
:20133400623E93A192A0FF3659A858A90642FF35F60E1FA15BA901A3F60A1FA1562D04A28B
:201344002DA336A0FF40F60B1FA1FF339B00FF30FF540CA295A3FF4008A70001F61FFF7734
:201354000920FF4008A70001F61FFF77FF5A92A7652208A9FF016313A9A9FF46917F5BA8EC
:201364005AA925A695A7FF960CA295A3BDA90F12FE8282BE86BE8BBE8EBE00069B00FF57CD
:2013740008A8FF7FFF5A93A660F228A8800071AA92AB6FEDFF2000006FEAFF5A93A418A87B
:201384000100FF965CA8A9A908A8FF7F1CA88000CBA46FDDB2BDAABDA2BDFE0206A661717D
:201394005FDD93DCF3A7A3C406D4FF90FFD4974106D456AA1AA880008EA9A9A11B41000080
:2013A400616B1B4107FF6162A3C506D5FF90FFD4974206D556AA1AA8800086A9A9A31B42C5
:2013B4000000615A1B4207FF61519341954297A45633A2AC564700A1A9A9560500A0565358
:2013C40000ABB2AC560500A2565300AB562800A99B00565CB2AC564700A2565300AB3AAC64
:2013D400564700A3565300AB560500A2565300AB1EC6562800A99B00564700A2565300ABDB
:2013E4001ED6A3C6630356900AA48DC00200565700A3D300564000A3630418A87FFF0AA494
:2013F4005699910F08A4FC0165171BA407FF630E18A7800099A793A4FF93CBA7A9C61ED6D2
:20140400FE8282BE86BE8BBE00065633CDA780001AA87FF06FF456336FF28F000C00761F4A
:201414000382A8100200761F003019011E022B062B071A0400101A0400200200761F03828F
:201424001E128F000C08A8008F000C10A808761F003019011E0A761F0030020019011E12BA
:20143400761F00302B0E2B0F761F00302B162B17761F00301A0C0010761F00301A1400101A
:20144400761F00301A0C0020761F00301A140020761F038202001E021E0A0006FE08E20315
:201454000146E2030044A84206441EE48A4206461EF4E2AF0044E2AF0146E7000008770095
:20146400E68800007700E20300488A428AC4064819011ED48A428AC42BF48A428AC42BFC68
:201474008A428AC41AE400108A428AC41AE400208A428AC418E4FBFF8A428AC418E4F7FFDC
:201484008A428AC41AE440008A4202001ED4FE880006761BFFF00005ABBDA8BDA0BDC2BD76
:20149400C3BDE20000BDE20300BDE20301BDE20302BDE20303BDE6300600FF692942561630
:2014A40076480B6C761F003356BF0821761F014092179618E2AF03BEE2AF02BEE2AF01BECD
:2014B400E2AF00BEE28000BEC5BEC4BE83BE8ABE87BE00033B30FFF176177602761BFFF0F3
:2014C4000005ABBDA8BDA0BDC2BDC3BDE20000BDE20300BDE20301BDE20302BDE20303BDAD
:2014D400E6300600FF692942561676480BA87622761F01C81A0B0040761A761F0033282130
:2014E4000100E2AF03BEE2AF02BEE2AF01BEE2AF00BEE28000BEC5BEC4BE83BE8ABE87BEB2
:2014F40000033B30FFF176177602FE06E2030144E2030042291002001E468F000425761F34
:201504000381A8A90F36600E8F00036E761F0381A8A90F346107020107461E46A8A90F34E2
:2015140060FB3B108F000C00761F0382A8100200761F003019011E022B062B071A04001012
:201524001A0400200200761F03821E12E8024BA0E2AF0142FF69E80920008F00E090E30217
:20153400084476481452761F00301804FFEF7622761F00358F081678A80C761A761F0033C5
:201544001A22004076230001FF69FE8600063B10761F00331A2200402910FF6900063B10FE
:20155400761F00331822FFBFF6057700762FFFFE56BF01212910FF690006761F0382921900
:201564000A195200610556BF01180B196F0A7648154B76480BA976481553761F03820B19CD
:201574000006FE0656BF01452842B717284138D1E8021A40E20300447648100776481273C3
:20158400761F20958A2802001EC476480D3DE2AF0042E2AF0144764814F9761F20958A28EF
:20159400BE0006C46002BE017E457648154B764816C7764810009245611B761F20958A28F5
:2015A400B600BE0006C46002BE0192A66002B601761F03827F1A9A00931ABE005300610209
:2015B4009A0152006002BE017E45924560E776480DBB764810049A00FE8600067622761F7F
:2015C40001E456BF190756BF1806761AFF6900067622761F174C1A280002761F01402B36B1
:2015D4002838FFFF1834FEFF1835FFEF02001E22CC35FF3F504096351835FDFF1835FFFEA6
:2015E4001834C1FF1835FFF91834FFFE1834FFFD56BFFF381A3500081A3500101A340100B4
:2015F400761AFF6900067622761F174C1A280001761F01402B162818FFFF1814FEFF18155B
:20160400FFEF02001E02CC15FF3F504096151815FDFF1815FFFE1814C1FF1815FFF91814CC
:20161400FFFE1814FFFD56BFFF181A1500081A1500101A140100761AFF69000628AD0122CA
:20162400FF69561F5616561AE61002002940761F00002902761B76481816520061427622C2
:2016340028A9257028A800080901611B76C8257029046F0F9B0024A9DF016C04290424A8A3
:20164400DF011EA6F7A1248606A781A109011EA724A96303FF5C3B0459A9DF010009FFEC5F
:2016540028A9FFFF28A8FFFF090161058F3FFFFF7648175E761A7648181828A9FFFF28A84D
:20166400FFFF0901610E76FFFFFF6F06DF01C3BD1EA73E67C5BE24A9DF0124A8FF5860F793
:20167400764817DB764816E9761BFFF00005ABBDA8BDA0BDC2BDC3BDE20000BDE20300BDFA
:20168400E20301BDE20302BDE20303BDE6300600FE02FF6929425616761F003392229641AC
:201694001822FFBFF6057700762FFFFE56BF0121762300012910FF69764815613B10924166
:2016A400761F00339622FE82E2AF03BEE2AF02BEE2AF01BEE2AF00BEE28000BEC5BEC4BEBF
:2016B40083BE8ABE87BE00033B30FFF176177602FE028F007029A842762256BF68C4761A6A
:2016C400FF69FE82000676228F08148D761F0035A830761A761F00331A280001762300086A
:2016D4007622761F00378F0814C2A800761A761F00331A3200017623010029102920FF6954
:2016E40000060006000677006F00B2BD761F038159A99238610D28ABFFFF28AAFFFF28A9BA
:2016F400FFFF28A8FFFF0FAB6103767FFFFF761F0381C53E3E67761F0381063C61041EA7B3
:2017040092A13E67761F0381063A61031EA73E67764816E78BBE00063B10761F0033182071
:20171400FFFE2B222B242B262B282B2A2B2C2B2E2B302B322B342B362B382B232B252B27A8
:201724002B292B2B2B2D2B2F2B312B332B352B372B39FF690006761F00331A2000012821AF
:20173400FFFF2910FF690006FE068F0823A8A8428F000D00A844020607421E420206074414
:201744001E4476222B45924552DD670D83448A42A0A9C4840902A8421E44C2C50A45924579
:2017540052DD68F5761A761F00331A200001FF69FE860006B2BDAABDA2BDFE0882A4D10032
:201764005ACB6F155CAD2901560303A107A3DC8809025CA483A90208764817A10642610618
:201774008A448346764817A15ACBD90192A254A166EAFE8882BE86BE8BBE00065EDCA3C4D6
:2017840006D4FF90FFD497A506D456AA1AA8800008A5FC0164112FA89B1F9FA565092DA87A
:2017940093AA56221BA600006302FF540006560200A6FF576FFC02006FFA5200A8AB8EA400
:2017A400610880A9DF8188A780857F80000EFFFE88A90FA6610F5300610D9DFF5CA876BF09
:2017B400FFFE92859680000EFFFE92859680000CFFF8A9A4000606A66112BFA90F1297A579
:2017C4003100569691FF611253FF610A08A8038056A318A58000CBA5A9C61ED6000656335D
:2017D400CDA580001AA87FF06FF856336FF628ABFFFF28AAFFFF28A9FFFF28A8FFFF0FAB85
:2017E4006004BE00D4006F0928ABFFFF28AAFFFFA9A488C409028AA992A676481575000679
:2017F400BDA90F12BDAB0F16565E565E610AE68B0000E68B0009E853E0007700E710000872
:201804000006761F0382A81C0006761F0381A83E00060006561F7622B9C028290068761A00
:0A181400004816229A0100060006A3
:20181C00000000000E9000C9155F01920CAF025BECBE0323ADCF03EC482504B5B403057D8C
:20182C00E9AF0645E172070D939607D5F867089C08370964BB590A2A0A220AF1ECEF0BB693
:20183C005C1E0C7C50130D41C1350E05A7F30EC9FCBE0F8CB80E104FD2631111443F11D327
:20184C00062F129410C313545C941413E24214D19A76158F7DDD164C85311708A93117C34E
:20185C00E2A7187D2A641937794419EFC82B1AA6100A1B5D49D81C126E991CC6775C1D79C5
:20186C005D381E2B19531EDCA4DC1F8BF90F20390F3220E7E09B219266A8223D9AC822E640
:20187C007673238EF33224340A9A24DAB64C257DEFFA261FB16226C0F452275FB2A727FD7F
:20188C00E64A289989372934957829CD05252A65D2692AFAF77D2B8E6EAA2C21324C2CB225
:20189C003CCD2D4188AA2DCE10702E5ACEBE2EE3BE452F6BD9C72FF11C183076801F30F8E5
:2018AC0000D63179994831F744933274FDEA32EEC090336787DE33DE4F413453123634C656
:2018BC00CC523536793C35A514B036129A7E367C068A36E554CE374B815937AF884D3811F1
:2018CC0065E33871166938CF9642392AE1E83983F5E839DACEE83A2F69A33A82C2E83AD238
:2018DC00D79E3B20A4C43B6C276E3BB65CC43BFD420A3C42D4963C8411D93CC5F7573D02C3
:2018EC0082AE3D3EB1923D7781CF3DAEF1483DE2FDF73E14A5EF3E44E7593E71C0763E9C4C
:2018FC002FA03EC533473EEBC9F53F0EF24A3F2FAAFE3F4EF2E33F6AC8E23F842BFB3F9C81
:20190C001B483FB195F93FC39B5A3FD32ACB3FE143C73FECE5E03FF410C13FFBC42D3FFE56
:20191C0000004000C42D3FFE10C13FFBE5E03FF443C73FEC2ACB3FE19B5A3FD395F93FC359
:20192C001B483FB12BFB3F9CC8E23F84F2E33F6AAAFE3F4EF24A3F2FC9F53F0E33473EEBCF
:20193C002FA03EC5C0763E9CE7593E71A5EF3E44FDF73E14F1483DE281CF3DAEB1923D77D4
:20194C0082AE3D3EF7573D0211D93CC5D4963C84420A3C425CC43BFD276E3BB6A4C43B6C77
:20195C00D79E3B20C2E83AD269A33A82CEE83A2FF5E839DAE1E839839642392A166938CFC8
:20196C0065E33871884D3811815937AF54CE374B068A36E59A7E367C14B03612793C35A5D8
:20197C00CC523536123634C64F41345387DE33DEC0903367FDEA32EE44933274994831F77C
:20198C0000D63179801F30F81C183076D9C72FF1BE452F6BCEBE2EE310702E5A88AA2DCEEB
:20199C003CCD2D41324C2CB26EAA2C21F77D2B8ED2692AFA05252A65957829CD893729348E
:2019AC00E64A2899B2A727FDF452275FB16226C0EFFA261FB64C257D0A9A24DAF3322434F7
:2019BC007673238E9AC822E666A8223DE09B21920F3220E7F90F2039A4DC1F8B19531EDC33
:2019CC005D381E2B775C1D796E991CC649D81C12100A1B5DC82B1AA6794419EF2A64193794
:2019DC00E2A7187DA93117C3853117087DDD164C9A76158FE24214D15C94141310C313547A
:2019EC00062F1294443F11D3D2631111B80E104FFCBE0F8CA7F30EC9C1350E0550130D419D
:2019FC005C1E0C7CECEF0BB60A220AF1BB590A2A08370964F867089C939607D5E172070DA3
:201A0C00E9AF0645B403057D482504B5ADCF03ECECBE03230CAF025B155F01920E9000C9B7
:201A1C0000000000F170FF36EAA1FE6DF351FDA41342FCDC5231FC13B7DBFB4A4BFDFA82DF
:201A2C001651F9BA1E8EF8F26C6AF82A0799F763F7C9F69B44A7F5D5F5DEF50E1311F449BB
:201A3C00A3E2F383AFEDF2BE3ECBF1FA580DF1360342F07347F2EFB02D9DEEEEBBC1EE2C07
:201A4C00F9D1ED6BEF3DECABA36CEBEC1DBEEB2E658AEA708223E9B37ACFE8F756CFE83CC0
:201A5C001D59E782D59CE6C886BCE61037D5E559EFF6E4A2B628E3ED9167E33988A4E28629
:201A6C00A2C8E1D4E6ADE1235B24E07406F1DFC6F0CEDF181F65DE6D9958DDC26538DD198E
:201A7C00898DDC710CCEDBCBF566DB2549B4DA821006D9E04E9ED93F0BAED8A04D59D8022F
:201A8C0019B6D76676C9D6CB6A88D632FADBD59A2D97D5050883D4719156D3DECDB4D34D69
:201A9C00C333D2BE7756D231EF90D1A53142D11C41BBD0942639D00EE3E8CF897FE1CF0789
:201AAC00FF2ACE8666B8CE08BB6DCD8B0216CD113F70CC987822CC21B0BFCBACEDCACB39F8
:201ABC0033AECAC986C4CA5AEB50C9ED6582C983F976C91AAB32C8B47EA7C85077B3C7EE3D
:201ACC009A1DC78EE997C73069BEC6D51E18C67C0A18C6253118C5D0965DC57D3D18C52DD6
:201ADC002862C4DF5B3CC493D892C449A33CC402BDF6C3BD2B6AC37BEE27C33A08A9C2FD2B
:201AEC007D52C2C14E6EC2887E31C2510EB8C21D0209C1EB5A11C1BB18A7C18E3F8AC16382
:201AFC00D060C13ACCB9C114360BC0F10DB6C0D05502C0B10D1DC095371EC07BD405C0632D
:201B0C00E4B8C04E6A07C03C64A6C02CD535C01EBC39C0131A20C00BEF3FC0043BD3C00136
:201B1C000000C0003BD3C001EF3FC0041A20C00BBC39C013D535C01E64A6C02C6A07C03C10
:201B2C00E4B8C04ED405C063371EC07B0D1DC0955502C0B10DB6C0D0360BC0F1CCB9C1147D
:201B3C00D060C13A3F8AC16318A7C18E5A11C1BB0209C1EB0EB8C21D7E31C2514E6EC28858
:201B4C007D52C2C108A9C2FDEE27C33A2B6AC37BBDF6C3BDA33CC402D892C4495B3CC49395
:201B5C002862C4DF3D18C52D965DC57D3118C5D00A18C6251E18C67C69BEC6D5E997C73024
:201B6C009A1DC78E77B3C7EE7EA7C850AB32C8B4F976C91A6582C983EB50C9ED86C4CA5AF4
:201B7C0033AECAC9EDCACB39B0BFCBAC7822CC213F70CC980216CD11BB6DCD8B66B8CE0830
:201B8C00FF2ACE867FE1CF07E3E8CF892639D00E41BBD0943142D11CEF90D1A57756D231A1
:201B9C00C333D2BECDB4D34D9156D3DE0883D4712D97D505FADBD59A6A88D63276C9D6CBDE
:201BAC0019B6D7664D59D8020BAED8A04E9ED93F1006D9E049B4DA82F566DB250CCEDBCB55
:201BBC00898DDC716538DD199958DDC21F65DE6DF0CEDF1806F1DFC65B24E074E6ADE123F9
:201BCC00A2C8E1D488A4E2869167E339B628E3EDEFF6E4A237D5E55986BCE610D59CE6C878
:201BDC001D59E78256CFE83C7ACFE8F78223E9B3658AEA701DBEEB2EA36CEBECEF3DECAB72
:201BEC00F9D1ED6BBBC1EE2C2D9DEEEE47F2EFB00342F073580DF1363ECBF1FAAFEDF2BE2F
:201BFC00A3E2F3831311F449F5DEF50E44A7F5D5F7C9F69B0799F7636C6AF82A1E8EF8F209
:201C0C001651F9BA4BFDFA82B7DBFB4A5231FC131342FCDCF351FDA4EAA1FE6DF170FF36D3
:201C1C00000000000E9000C9155F01920CAF025BECBE0323ADCF03EC482504B5B403057D88
:201C2C00E9AF0645E172070D939607D5F867089C08370964BB590A2A0A220AF1ECEF0BB68F
:201C3C005C1E0C7C50130D41C1350E05A7F30EC9FCBE0F8CB80E104FD2631111443F11D323
:201C4C00062F129410C313545C941413E24214D19A76158F7DDD164C85311708A93117C34A
:201C5C00E2A7187D2A641937794419EFC82B1AA6100A1B5D49D81C126E991CC6775C1D79C1
:201C6C005D381E2B19531EDCA4DC1F8BF90F20390F3220E7E09B219266A8223D9AC822E63C
:201C7C007673238EF33224340A9A24DAB64C257DEFFA261FB16226C0F452275FB2A727FD7B
:201C8C00E64A289989372934957829CD05252A65D2692AFAF77D2B8E6EAA2C21324C2CB221
:201C9C003CCD2D4188AA2DCE10702E5ACEBE2EE3BE452F6BD9C72FF11C183076801F30F8E1
:201CAC0000D63179994831F744933274FDEA32EEC090336787DE33DE4F413453123634C652
:201CBC00CC523536793C35A514B036129A7E367C068A36E554CE374B815937AF884D3811ED
:201CCC0065E33871166938CF9642392AE1E83983F5E839DACEE83A2F69A33A82C2E83AD234
:201CDC00D79E3B20A4C43B6C276E3BB65CC43BFD420A3C42D4963C8411D93CC5F7573D02BF
:201CEC0082AE3D3EB1923D7781CF3DAEF1483DE2FDF73E14A5EF3E44E7593E71C0763E9C48
:201CFC002FA03EC533473EEBC9F53F0EF24A3F2FAAFE3F4EF2E33F6AC8E23F842BFB3F9C7D
:201D0C001B483FB195F93FC39B5A3FD32ACB3FE143C73FECE5E03FF410C13FFBC42D3FFE52
:201D1C0000004000000040000001000000000000FFFEFFFF0000000000000000FFFFFFFF2F
:201D2C00000000003FC03FC039543F4221593EC6EC883E4B8FF13DD300F53D5D354B3CE84D
:201D3C0022F43C75C03C3C0303B93B94E4463B2559013AB959483A4EDCB939E4DB2C397C8C
:201D4C004CB6391629A238B16A72384D07DD37EBFACB37893C56372AC5C736CB9096366E3C
:201D5C0096643612D0FF35B73A5F355ECCA23505820F34AE55103458403434033E2F33AF38
:201D6C0049D5335C5E1B330A761832B98CFF32699E24321AA4F631CC9D01317F81EC313391
:201D7C004F7A30E80185309E940330540301300C4AA32FC467242F7D54D72F3710232EF2BC
:201D8C0095842EADE18B2E69F0DB2E26C02E2DE44C4D2DA392152D628E752D223E6C2CE378
:201D9C009F0A2CA4AD712C6666D02C29C8682BECCF882BB0798D2B75C3E22B3AAC032B0070
:201DAC002F752AC74BCD2A8EFEAD2A5545C22A1E1EC629E7877E29B07DBB297AFF5B2944C5
:201DBC000A4429109C6928DBB3C628A74E6128746A4D284105A2280F1E8527DDB32327AB98
:201DCC00C1B2277A4871274A45A7271AB7A426EA9CBF26BBF35A268CB9DB265EEEB22630D8
:201DDC00905626039D4425D6140225AAF31D257D39262552E4B72526F47124FB66FA24D1D0
:201DEC003AFD24A76F2E247D02452454F301242A40242402E87923D9EACE23B145F8238A39
:201DFC00F8D023620234233C61072315143222EF1AA222C9734822A31D1A227E171422594A
:201E0C0060332234F77C220FDBF521EB0CAB21C888AC21A44F0D21815EE4215EB74D213B95
:201E1C00576721193E5320F76B3920D5DD4120B3939820928D6F2071C9F92050486D2030DB
:201E2C0008042010F7FCDFEFB793DFCF3607DFAF7291DF8E6C68DF6D22BFDF4C94C7DF2AD6
:201E3C00C1ADDF08A899DEE648B3DEC4A11CDEA1B0F3DE7E7754DE5BF355DE37240BDE14D2
:201E4C000884DDF09FCDDDCBE8ECDDA6E2E6DD818CB8DD5CE55EDD36EBCEDD109EF9DCEAB6
:201E5C00FDCCDCC30730DC9DBA08DC751532DC4E1787DC26BFDCDBFD0CFFDBD5FDBBDBABBE
:201E6C0090D2DB82C503DB589906DB2E0B8FDB041B49DAD9C6DADAAD0CE3DA82EBFEDA55DA
:201E7C0062BCDA296FAAD9FC114ED9CF4625D9A10CA6D9736341D944485CD915BA59D8E52A
:201E8C00B78FD8B53E4ED8854CDDD854E17BD822FA5ED7F095B3D7BEB19FD78B4C3AD7586C
:201E9C006397D724F5BCD6EF00A5D6BB8245D6857882D64FE13AD618BA3ED5E10153D5AABA
:201EAC00B433D571D08BD53853FDD4FF3C1ED4C58673D48A3078D44F3798D4139930D3D621
:201EBC00528FD39960F6D35BC194D31C718BD2DD6DEBD29DB3B3D25C3FD2D21B0F25D1D90F
:201ECC001E75D1966A7CD152EFDDD10DAB29D0C898DCD082B55DD03BFCFFCFF36BFDCFAB5B
:201EDC00FE7BCF61B086CF177E14CECC62FFCE805B0ACE3361DCCDE57301CD9689E8CD4696
:201EEC00A1E5CCF5B62BCCA3C1D1CC50BFCCCBFCAAF0CBA77DF1CB51335ECAFAC5A1CAA183
:201EFC002F01CA48699CC9ED6F6AC9913A39C934C3AAC8D50535C876F823C814958EC7B211
:201F0C00D65EC74EB34AC6E924D4C6832347C61BA6B8C5B1A6FFC5461BBAC4DAFC47C46BCB
:201F1C003FC4C3FCDD0CC38ACAB5C317FF0BC2A2700FC22C1378C1B4DEA7C139C6ACC0BD0B
:201F2C00C040C03F0000600080000000000000000000FFFF7FFF00000000400000002000DA
:201F3C003CCD2D41000000005A325A55E46859FB765D59A30B0B594C9D8E58F5292258A0EE
:201F4C00A924584B191157F8747F57A5B7275753DCD85702E18056B2C125566377E7561537
:201F5C0001FE55C85BBA557B8182552F6FD254E4233D549A986B5450CC165407BB0E53BF57
:201F6C0062355378BE815331CCF652EB8AAE52A6F4D152610898521EC34D51DA22485198EB
:201F7C0022F05156C2BD5114FF3150D3D5E15093446B5054487B5015DFCC4FD608234F995E
:201F8C00BF524F5B03354F1FD1B74EE228CA4EA7066E4E6C68AB4E314D954DF7B3484DBD4A
:201F9C0097ED4D84F9B34D4BD6D44D132D934CDCFC3B4CA4411F4C6EFA9D4C3727174C02B3
:201FAC00C4FC4BCCD2BD4B974ED84B6337CE4B2F8C2A4AFB4A7C4AC8715C4A95FF694A62E7
:201FBC00F3474A304BA349FF072C49CE249C499DA2AE496C8028493CBBD0490C547748DD29
:201FCC0048EF48AE9811487F40BD485141D548239A4147F548EF47C84CCF479BA4D9476EB5
:201FDC00500847424D5A47169BD346EA3A7B46BF285D4694648B4669EE17463EC41A4614EA
:201FEC00E5AF45EA51F545C1081045980725456F4E5F4546DCEC451DB1FB44F5CCC244CD0B
:201FFC002C7744A6D054447EB7984457E18244304D57440AFA5C43E3E7DA43BD151F439853
:20200C00817743722C36434D14AF43283A3843039C2A42DE39E342BA12BE4296261E427291
:20201C007364424EF9F6422AB93B4207B09D41E4DF8741C14568419FE1B0417CB3CF415AD3
:20202C00BB3C4138F76A411667D440F50BF140D4E33F40B2ED3B409129644071973B40503F
:20203C003644403006034010000040000003000000060000000D00000019000000320000A0
:20204C000065000000C900000192000003240000064800000C9100001922000032440000F0
:20205C0064880000C910000092200001243F0003487F000690FE000C21FB001943F700327E
:20206C0087ED00640FDB00C91FB501923F6B03247ED50648FDAA0C90FB541921F6A9324310
:20207C00ED51648700000000AA9F40000600FF80F008FFFFA6E0400871E5FE80B071FFFF56
:20208C008D734018FCC8FD812268FFFF3AB1403063A9FC85287CFFFE79AC404F6014FB8BDB
:20209C00A71FFFFC04CD4076A6CDFA948522FFFA86B140A3E692F9A1AC26FFF79B2440D771
:2020AC00C6EEF8B30900FFF4D0504111E724F7CA8C0CFFEFA80C4151DD35F6E72976FFEA38
:2020BC00994841963508F60BD96EFFE3119041E06FABF535984FFFDC76A3422D02BBF4677D
:2020CC0066B1FFD4280F427E57E8F3A0496FFFCB80D742D1CCA6F2E14999FFC1D91143261B
:2020DC00B1F0F22B7458FFB68782437D4C3BF17EDAC6FFAAE32443D4D37EF0D991B6FF9E81
:2020EC0044A1442C735DF03EB171FF9107B644834B6CEFAC556DFF848C7744D86F8FEF2385
:2020FC009BF8FF76387C452CE86BEEA3A5DEFF6877E9457DB3F0EE2D960AFF5ABE5D45CBC5
:20210C00C5ECEDC09125FF4C87B5461608B5ED5DBD34FF3E58B4465D5DD4ED024136FF3111
:20211C00BF8B469F9EBFECB044C3FF24543646DD9D92EC67EFAFFF17B8CA471525CFEC2789
:20212C0069AEFF0C99954748FD1CEBEEDA06FF01AD284775E3FFEBBE6738FEF8B450479C4A
:20213C009698EB9636BEFEF079E747BDCD52EB756CC7FEE9D2A047D73D8DEB5C2BFFFEE448
:20214C009CB747EB9A47EB499559FEE0BF9647F894B3EB3DC7E3FEDE2B6947FFDCCAEB37E2
:20215C00E0A5FEDED8AB47FE21D4EB38FA83FEE0C7AA47F712E1EB3E2E23FEE5000047EA97
:20216C005F3DEB4991E2FEEB901147D5B6D5EB5939C4FEF48C7A47BACA94EB6E3776FEFF44
:20217C000F8C47994CB4EB889A4AFF0C38BF4771F107EBA56F40FF1C2C2B47436D31EBC734
:20218C00C10DFF2E1200470F78E5EBEC982AFF43160B46D5CE07EC14FAE6FF5A67324695DA
:20219C0028DBEC40ED76FF74370346504818EC6E720FFF91B9444605ED06EC9E88FBFFB08C
:2021AC00238345B6DB87ECD130B3FFD2ACB94561DA28ED0665FBFFF68CE84508B220ED3D8D
:2021BC0023FA001DFCC744AA2F51ED76645A004635764449204AEDB01F600072702F43E33C
:2021CC005637EDEB4C0900A0E6094379A4DEEE27E02800D0CFBD430CE28CEE64D07E010392
:2021DC00656B429CE80CEEA210D60139DE724228908EEEE194200170714041B2B99CEF20BD
:2021EC004C8601AA533141394300EF602B8901E6B86E40BD0EB2EFA022140224D3D2403F39
:2021FC0000C3EFE020940264D6D23FBFFF43F01F0000200000000000FFFFFFFFFFFF1FFFE8
:20220C00000000000000E0000000100000000000FFFFFFFFFFFF0FFF000000000000F000CA
:20221C000000080000000000FFFFFFFFFFFF07FF000000000000F80000000400000000009E
:20222C00FFFFFFFFFFFF03FF000000000000FC000000020000000000FFFFFFFFFFFF01FF9E
:20223C00000000000000FE000000010000000000FFFFFFFFFFFF00FF000000000000FF008B
:20224C000000008000000000FFFFFFFFFFFF007F000000000000FF800000004000000000BA
:20225C00FFFFFFFFFFFF003F000000000000FFC00000002000000000FFFFFFFFFFFF001F31
:20226C00000000000000FFE00000001000000000FFFFFFFFFFFF000F000000000000FFF06B
:20227C000000000800000000FFFFFFFFFFFF0007000000000000FFF800000004000000003E
:20228C00FFFFFFFFFFFF0003000000000000FFFC0000000200000000FFFFFFFFFFFF00013D
:20229C00000000000000FFFE0000000100000000FFFFFFFFFFFF0000000000000000FFFF2C
:2022AC008000000000000000FFFFFFFF7FFF0000000000008000FFFF40000000000000005A
:2022BC00FFFFFFFF3FFF000000000000C000FFFF2000000000000000FFFFFFFF1FFF0000D0
:2022CC0000000000E000FFFF1000000000000000FFFFFFFF0FFF000000000000F000FFFF0C
:2022DC000800000000000000FFFFFFFF07FF000000000000F800FFFF0400000000000000DE
:2022EC00FFFFFFFF03FF000000000000FC00FFFF0200000000000000FFFFFFFF01FF0000DC
:2022FC0000000000FE00FFFF0100000000000000FFFFFFFF00FF000000000000FF00FFFFCD
:20230C000080000000000000FFFFFFFF007F000000000000FF80FFFF0040000000000000F9
:20231C00FFFFFFFF003F000000000000FFC0FFFF0020000000000000FFFFFFFF001F00006E
:20232C0000000000FFE0FFFF0010000000000000FFFFFFFF000F000000000000FFF0FFFFAC
:20233C000008000000000000FFFFFFFF0007000000000000FFF8FFFF00040000000000007D
:20234C00FFFFFFFF0003000000000000FFFCFFFF0002000000000000FFFFFFFF000100007A
:20235C0000000000FFFEFFFF0001000000000000FFFFFFFF0000000000000000FFFFFFFF6D
:20236C007622761F17E0CC1EFF005014961E1A2400011A200003761F17E61800FFFD1800F2
:20237C00FFFE761F17E0CC00F0FF1AA903009600761F17E61A0000021A000001761F17EC40
:20238C00CC00FFF0500A9600761AF6077700FF6900067622761F17E0CC1EFF005014961EEF
:16239C001820FFFC1824FFFE761AFF690006190156C3FFFF00068A
:2023A80005680008056800080568000805680008056800080568000805680008056800086D
:2023B800056800080568000805680008056800080568000800040008000E0008001800087A
:2023C80000220008002C00080036000800400008004A000800540008005E0008006800088D
:2023D80000720008007C00080086000800900008009A000800A4000800AE000800B80008FD
:2023E80000C2000800CC000800D6000800E0000800EA000800F4000800FE0008010800086C
:2023F80001120008011C00080126000801300008013A000801440008014E000801580008D5
:2024080001620008016C00080176000801800008018A000801940008019E000801A8000844
:2024180001B2000801BC000801C6000801D0000801DA000801E400080568000805680008C2
:2024280001EE000801F8000802020008056800080568000805680008056800080568000847
:20243800020C00080216000802200008022A000802340008023E00080248000802520008BC
:20244800025C00080266000802700008027A000802840008028E0008056800080568000890
:202458000298000802A2000802AC000802B6000802C0000802CA000802D4000802DE00083C
:2024680002E8000802F2000802FC00080306000803100008031A000803240008032E0008A7
:202478000338000803420008034C00080356000803600008036A000803740008037E000814
:202488000388000803920008039C000803A6000803B0000803BA000803C4000803CE000884
:2024980003D8000803E2000803EC0008056800080568000803F6000804000008040A000850
:2024A8000568000805680008056800080568000804140008041E0008042800080432000884
:2024B800043C00080446000804500008045A000805680008056800080568000805680008D4
:2024C80004640008046E000804780008048200080568000805680008056800080568000824
:2024D80005680008056800080568000805680008056800080568000805680008056800083C
:2024E800048C000804960008056800080568000805680008056800080568000805680008DC
:2024F80004A0000804AA0008056800080568000805680008056800080568000805680008A4
:2025080005680008056800080568000805680008056800080568000805680008056800080B
:2025180005680008056800080568000805680008056800080568000804B4000805680008B0
:2025280005680008056800080568000805680008056800080568000804BE00080568000896
:2025380004C8000804D2000804DC000804E6000804F0000804FA000805040008050E0008C9
:202548000568000805680008056800080568000805680008056800080568000805680008CB
:202558000518000805220008052C00080536000805400008054A000805540008055E000823
:0C256800E04C000000000000000041B04A
:20257000FFB7E0000000600044EA000041807712ABCC0000000000003F80000000000000A7
:202580000000000041E0000041E000003F8000003F8000003F00000000000FDB40C9C9EB95
:2025900041180000000000003F000000BF00000000000000000000000000000000000000D4
:2025A0000000000000000000000000000000AAAB3F2AAAABBEAAAAABBEAACD3A3F13CD3A83
:2025B000BF1300000000000000000000000000000000000000000040FFFFE07800000001A2
:2025C000FFFEE07A000000000000FFFEE07C000000000000FFFFE09800000000FFFFE0995E
:2025D00000000000FFFFE09A00000000FFFEE074000000000000FFFEE076000000000000CF
:1825E000FFFEE07E0000180D0008FFFEE09C0000180D000800000000B5
:2025EC003B021EBDFF5687A90646FF56A3A903AC1EBD06AC565000AB1EBD06AB566100ACC9
:2025FC005635563B1EA4FFD556B1FEA858A876C81C2E9B22EBAC83AC879728A840009A008D
:20260C00C4A9560500A4566300A456A003A6FF54560500A9566300A956A287A9560500A466
:20261C00566300A456A003A6FF54560500A9566300A956A28742560500A9566300A956A1CB
:20262C0087A5562C87AB0240560500A9566300A956A38CA9000658AB8F48207E76882080BC
:20263C0076C82082560500975663009756A30796560500A9566300A956A30795569176C8A6
:20264C002078C4C7A3A9FF544F4956480CAB06ABFF544F4356480CAB06A6FF544F495632B5
:16265C0007A64F4356480CA606A607AB4F455632FE8629020006AA
:2026680011B0000811B9000811C1000811C9000811D1000811D900081211000812190008C1
:2026780011E1000811E9000811F1000811F900081201000812090008122900081229000866
:20268800122900081221000810EE000810F3000810F8000810FD0008110200081107000843
:20269800110C00081111000811160008111B00081120000811250008112A0008112F00086E
:00000001FF
